{
  "contractName": "BlockBori",
  "abi": [
    {
      "inputs": [],
      "stateMutability": "nonpayable",
      "type": "constructor"
    },
    {
      "anonymous": false,
      "inputs": [
        {
          "indexed": true,
          "internalType": "address",
          "name": "owner",
          "type": "address"
        },
        {
          "indexed": true,
          "internalType": "address",
          "name": "spender",
          "type": "address"
        },
        {
          "indexed": false,
          "internalType": "uint256",
          "name": "value",
          "type": "uint256"
        }
      ],
      "name": "Approval",
      "type": "event"
    },
    {
      "anonymous": false,
      "inputs": [
        {
          "indexed": false,
          "internalType": "uint256",
          "name": "amount",
          "type": "uint256"
        }
      ],
      "name": "Buy",
      "type": "event"
    },
    {
      "anonymous": false,
      "inputs": [
        {
          "indexed": false,
          "internalType": "address",
          "name": "",
          "type": "address"
        },
        {
          "indexed": false,
          "internalType": "uint256",
          "name": "",
          "type": "uint256"
        }
      ],
      "name": "Received",
      "type": "event"
    },
    {
      "anonymous": false,
      "inputs": [
        {
          "indexed": false,
          "internalType": "uint256",
          "name": "amount",
          "type": "uint256"
        }
      ],
      "name": "Sell",
      "type": "event"
    },
    {
      "anonymous": false,
      "inputs": [
        {
          "indexed": true,
          "internalType": "address",
          "name": "from",
          "type": "address"
        },
        {
          "indexed": true,
          "internalType": "address",
          "name": "to",
          "type": "address"
        },
        {
          "indexed": false,
          "internalType": "uint256",
          "name": "value",
          "type": "uint256"
        }
      ],
      "name": "Transfer",
      "type": "event"
    },
    {
      "inputs": [],
      "name": "decimals",
      "outputs": [
        {
          "internalType": "uint8",
          "name": "",
          "type": "uint8"
        }
      ],
      "stateMutability": "view",
      "type": "function"
    },
    {
      "inputs": [],
      "name": "name",
      "outputs": [
        {
          "internalType": "string",
          "name": "",
          "type": "string"
        }
      ],
      "stateMutability": "view",
      "type": "function"
    },
    {
      "inputs": [],
      "name": "symbol",
      "outputs": [
        {
          "internalType": "string",
          "name": "",
          "type": "string"
        }
      ],
      "stateMutability": "view",
      "type": "function"
    },
    {
      "inputs": [],
      "name": "totalSupply_",
      "outputs": [
        {
          "internalType": "uint256",
          "name": "",
          "type": "uint256"
        }
      ],
      "stateMutability": "view",
      "type": "function"
    },
    {
      "stateMutability": "payable",
      "type": "receive"
    },
    {
      "inputs": [],
      "name": "totalSupply",
      "outputs": [
        {
          "internalType": "uint256",
          "name": "",
          "type": "uint256"
        }
      ],
      "stateMutability": "view",
      "type": "function"
    },
    {
      "inputs": [
        {
          "internalType": "address",
          "name": "tokenOwner",
          "type": "address"
        }
      ],
      "name": "balanceOf",
      "outputs": [
        {
          "internalType": "uint256",
          "name": "",
          "type": "uint256"
        }
      ],
      "stateMutability": "view",
      "type": "function"
    },
    {
      "inputs": [
        {
          "internalType": "address",
          "name": "receiver",
          "type": "address"
        },
        {
          "internalType": "uint256",
          "name": "numTokens",
          "type": "uint256"
        }
      ],
      "name": "transfer",
      "outputs": [
        {
          "internalType": "bool",
          "name": "",
          "type": "bool"
        }
      ],
      "stateMutability": "nonpayable",
      "type": "function"
    },
    {
      "inputs": [
        {
          "internalType": "address",
          "name": "delegate",
          "type": "address"
        },
        {
          "internalType": "uint256",
          "name": "numTokens",
          "type": "uint256"
        }
      ],
      "name": "approve",
      "outputs": [
        {
          "internalType": "bool",
          "name": "",
          "type": "bool"
        }
      ],
      "stateMutability": "nonpayable",
      "type": "function"
    },
    {
      "inputs": [
        {
          "internalType": "address",
          "name": "owner",
          "type": "address"
        },
        {
          "internalType": "address",
          "name": "delegate",
          "type": "address"
        }
      ],
      "name": "allowance",
      "outputs": [
        {
          "internalType": "uint256",
          "name": "",
          "type": "uint256"
        }
      ],
      "stateMutability": "view",
      "type": "function"
    },
    {
      "inputs": [
        {
          "internalType": "address",
          "name": "owner",
          "type": "address"
        },
        {
          "internalType": "address",
          "name": "buyer",
          "type": "address"
        },
        {
          "internalType": "uint256",
          "name": "numTokens",
          "type": "uint256"
        }
      ],
      "name": "transferFrom",
      "outputs": [
        {
          "internalType": "bool",
          "name": "",
          "type": "bool"
        }
      ],
      "stateMutability": "nonpayable",
      "type": "function"
    },
    {
      "inputs": [],
      "name": "buyToken",
      "outputs": [],
      "stateMutability": "payable",
      "type": "function"
    },
    {
      "inputs": [
        {
          "internalType": "uint256",
          "name": "amount",
          "type": "uint256"
        }
      ],
      "name": "sell",
      "outputs": [],
      "stateMutability": "nonpayable",
      "type": "function"
    }
  ],
  "bytecode": "0x60806040523480156200001157600080fd5b506012600a6200002291906200021e565b620f42406200003291906200026f565b600081905550600054600160003373ffffffffffffffffffffffffffffffffffffffff1673ffffffffffffffffffffffffffffffffffffffff16815260200190815260200160002081905550620002d0565b7f4e487b7100000000000000000000000000000000000000000000000000000000600052601160045260246000fd5b60008160011c9050919050565b6000808291508390505b60018511156200011257808604811115620000ea57620000e962000084565b5b6001851615620000fa5780820291505b80810290506200010a85620000b3565b9450620000ca565b94509492505050565b6000826200012d576001905062000200565b816200013d576000905062000200565b8160018114620001565760028114620001615762000197565b600191505062000200565b60ff84111562000176576200017562000084565b5b8360020a91508482111562000190576200018f62000084565b5b5062000200565b5060208310610133831016604e8410600b8410161715620001d15782820a905083811115620001cb57620001ca62000084565b5b62000200565b620001e08484846001620000c0565b92509050818404811115620001fa57620001f962000084565b5b81810290505b9392505050565b6000819050919050565b600060ff82169050919050565b60006200022b8262000207565b9150620002388362000211565b9250620002677fffffffffffffffffffffffffffffffffffffffffffffffffffffffffffffffff84846200011b565b905092915050565b60006200027c8262000207565b9150620002898362000207565b9250817fffffffffffffffffffffffffffffffffffffffffffffffffffffffffffffffff0483118215151615620002c557620002c462000084565b5b828202905092915050565b61163b80620002e06000396000f3fe6080604052600436106100ab5760003560e01c806370a082311161006457806370a08231146101e557806395d89b4114610222578063a48217191461024d578063a9059cbb14610257578063dd62ed3e14610294578063e4849b32146102d1576100ba565b806306fdde03146100bf578063095ea7b3146100ea57806318160ddd1461012757806323b872dd14610152578063313ce5671461018f578063324536eb146101ba576100ba565b366100ba576100b86102fa565b005b600080fd5b3480156100cb57600080fd5b506100d46103f2565b6040516100e19190610ddb565b60405180910390f35b3480156100f657600080fd5b50610111600480360381019061010c9190610e96565b61042b565b60405161011e9190610ef1565b60405180910390f35b34801561013357600080fd5b5061013c61051d565b6040516101499190610f1b565b60405180910390f35b34801561015e57600080fd5b5061017960048036038101906101749190610f36565b610526565b6040516101869190610ef1565b60405180910390f35b34801561019b57600080fd5b506101a46108fd565b6040516101b19190610fa5565b60405180910390f35b3480156101c657600080fd5b506101cf610902565b6040516101dc9190610f1b565b60405180910390f35b3480156101f157600080fd5b5061020c60048036038101906102079190610fc0565b610908565b6040516102199190610f1b565b60405180910390f35b34801561022e57600080fd5b50610237610951565b6040516102449190610ddb565b60405180910390f35b6102556102fa565b005b34801561026357600080fd5b5061027e60048036038101906102799190610e96565b61098a565b60405161028b9190610ef1565b60405180910390f35b3480156102a057600080fd5b506102bb60048036038101906102b69190610fed565b610b99565b6040516102c89190610f1b565b60405180910390f35b3480156102dd57600080fd5b506102f860048036038101906102f3919061102d565b610c20565b005b60006012600a61030a91906111bc565b6103e86103179190611207565b9050600061032432610908565b905060008211610369576040517f08c379a0000000000000000000000000000000000000000000000000000000008152600401610360906112ad565b60405180910390fd5b808211156103ac576040517f08c379a00000000000000000000000000000000000000000000000000000000081526004016103a390611319565b60405180910390fd5b6103b6338361098a565b507f3e32821836f4caf5b64b2c8c6b460049a9797526960d31502f7575b8da39d5ae826040516103e69190610f1b565b60405180910390a15050565b6040518060400160405280600981526020017f426f7269546f6b656e000000000000000000000000000000000000000000000081525081565b600081600260003373ffffffffffffffffffffffffffffffffffffffff1673ffffffffffffffffffffffffffffffffffffffff16815260200190815260200160002060008573ffffffffffffffffffffffffffffffffffffffff1673ffffffffffffffffffffffffffffffffffffffff168152602001908152602001600020819055508273ffffffffffffffffffffffffffffffffffffffff163373ffffffffffffffffffffffffffffffffffffffff167f8c5be1e5ebec7d5bd14f71427d1e84f3dd0314c0f7b2291e5b200ac8c7c3b9258460405161050b9190610f1b565b60405180910390a36001905092915050565b60008054905090565b6000600160008573ffffffffffffffffffffffffffffffffffffffff1673ffffffffffffffffffffffffffffffffffffffff168152602001908152602001600020548211156105aa576040517f08c379a00000000000000000000000000000000000000000000000000000000081526004016105a190611385565b60405180910390fd5b600260008573ffffffffffffffffffffffffffffffffffffffff1673ffffffffffffffffffffffffffffffffffffffff16815260200190815260200160002060003373ffffffffffffffffffffffffffffffffffffffff1673ffffffffffffffffffffffffffffffffffffffff16815260200190815260200160002054821115610669576040517f08c379a0000000000000000000000000000000000000000000000000000000008152600401610660906113f1565b60405180910390fd5b81600160008673ffffffffffffffffffffffffffffffffffffffff1673ffffffffffffffffffffffffffffffffffffffff168152602001908152602001600020546106b49190611411565b600160008673ffffffffffffffffffffffffffffffffffffffff1673ffffffffffffffffffffffffffffffffffffffff1681526020019081526020016000208190555081600260008673ffffffffffffffffffffffffffffffffffffffff1673ffffffffffffffffffffffffffffffffffffffff16815260200190815260200160002060003373ffffffffffffffffffffffffffffffffffffffff1673ffffffffffffffffffffffffffffffffffffffff1681526020019081526020016000205461077f9190611411565b600260008673ffffffffffffffffffffffffffffffffffffffff1673ffffffffffffffffffffffffffffffffffffffff16815260200190815260200160002060003373ffffffffffffffffffffffffffffffffffffffff1673ffffffffffffffffffffffffffffffffffffffff1681526020019081526020016000208190555081600160008573ffffffffffffffffffffffffffffffffffffffff1673ffffffffffffffffffffffffffffffffffffffff1681526020019081526020016000205461084a9190611445565b600160008573ffffffffffffffffffffffffffffffffffffffff1673ffffffffffffffffffffffffffffffffffffffff168152602001908152602001600020819055508273ffffffffffffffffffffffffffffffffffffffff168473ffffffffffffffffffffffffffffffffffffffff167fddf252ad1be2c89b69c2b068fc378daa952ba7f163c4a11628f55a4df523b3ef846040516108ea9190610f1b565b60405180910390a3600190509392505050565b601281565b60005481565b6000600160008373ffffffffffffffffffffffffffffffffffffffff1673ffffffffffffffffffffffffffffffffffffffff168152602001908152602001600020549050919050565b6040518060400160405280600281526020017f425400000000000000000000000000000000000000000000000000000000000081525081565b6000600160003373ffffffffffffffffffffffffffffffffffffffff1673ffffffffffffffffffffffffffffffffffffffff16815260200190815260200160002054821115610a0e576040517f08c379a0000000000000000000000000000000000000000000000000000000008152600401610a05906114e7565b60405180910390fd5b81600160003373ffffffffffffffffffffffffffffffffffffffff1673ffffffffffffffffffffffffffffffffffffffff16815260200190815260200160002054610a599190611411565b600160003373ffffffffffffffffffffffffffffffffffffffff1673ffffffffffffffffffffffffffffffffffffffff1681526020019081526020016000208190555081600160008573ffffffffffffffffffffffffffffffffffffffff1673ffffffffffffffffffffffffffffffffffffffff16815260200190815260200160002054610ae79190611445565b600160008573ffffffffffffffffffffffffffffffffffffffff1673ffffffffffffffffffffffffffffffffffffffff168152602001908152602001600020819055508273ffffffffffffffffffffffffffffffffffffffff163373ffffffffffffffffffffffffffffffffffffffff167fddf252ad1be2c89b69c2b068fc378daa952ba7f163c4a11628f55a4df523b3ef84604051610b879190610f1b565b60405180910390a36001905092915050565b6000600260008473ffffffffffffffffffffffffffffffffffffffff1673ffffffffffffffffffffffffffffffffffffffff16815260200190815260200160002060008373ffffffffffffffffffffffffffffffffffffffff1673ffffffffffffffffffffffffffffffffffffffff16815260200190815260200160002054905092915050565b60008111610c63576040517f08c379a0000000000000000000000000000000000000000000000000000000008152600401610c5a90611579565b60405180910390fd5b6000610c6f3332610b99565b905081811015610cb4576040517f08c379a0000000000000000000000000000000000000000000000000000000008152600401610cab906115e5565b60405180910390fd5b610cbf333284610526565b503373ffffffffffffffffffffffffffffffffffffffff166108fc839081150290604051600060405180830381858888f19350505050158015610d06573d6000803e3d6000fd5b507f522881958b3c4a6fc0840ad3b7fb947b881edc28c004245a62541647422ade9782604051610d369190610f1b565b60405180910390a15050565b600081519050919050565b600082825260208201905092915050565b60005b83811015610d7c578082015181840152602081019050610d61565b83811115610d8b576000848401525b50505050565b6000601f19601f8301169050919050565b6000610dad82610d42565b610db78185610d4d565b9350610dc7818560208601610d5e565b610dd081610d91565b840191505092915050565b60006020820190508181036000830152610df58184610da2565b905092915050565b600080fd5b600073ffffffffffffffffffffffffffffffffffffffff82169050919050565b6000610e2d82610e02565b9050919050565b610e3d81610e22565b8114610e4857600080fd5b50565b600081359050610e5a81610e34565b92915050565b6000819050919050565b610e7381610e60565b8114610e7e57600080fd5b50565b600081359050610e9081610e6a565b92915050565b60008060408385031215610ead57610eac610dfd565b5b6000610ebb85828601610e4b565b9250506020610ecc85828601610e81565b9150509250929050565b60008115159050919050565b610eeb81610ed6565b82525050565b6000602082019050610f066000830184610ee2565b92915050565b610f1581610e60565b82525050565b6000602082019050610f306000830184610f0c565b92915050565b600080600060608486031215610f4f57610f4e610dfd565b5b6000610f5d86828701610e4b565b9350506020610f6e86828701610e4b565b9250506040610f7f86828701610e81565b9150509250925092565b600060ff82169050919050565b610f9f81610f89565b82525050565b6000602082019050610fba6000830184610f96565b92915050565b600060208284031215610fd657610fd5610dfd565b5b6000610fe484828501610e4b565b91505092915050565b6000806040838503121561100457611003610dfd565b5b600061101285828601610e4b565b925050602061102385828601610e4b565b9150509250929050565b60006020828403121561104357611042610dfd565b5b600061105184828501610e81565b91505092915050565b7f4e487b7100000000000000000000000000000000000000000000000000000000600052601160045260246000fd5b60008160011c9050919050565b6000808291508390505b60018511156110e0578086048111156110bc576110bb61105a565b5b60018516156110cb5780820291505b80810290506110d985611089565b94506110a0565b94509492505050565b6000826110f957600190506111b5565b8161110757600090506111b5565b816001811461111d576002811461112757611156565b60019150506111b5565b60ff8411156111395761113861105a565b5b8360020a9150848211156111505761114f61105a565b5b506111b5565b5060208310610133831016604e8410600b841016171561118b5782820a9050838111156111865761118561105a565b5b6111b5565b6111988484846001611096565b925090508184048111156111af576111ae61105a565b5b81810290505b9392505050565b60006111c782610e60565b91506111d283610f89565b92506111ff7fffffffffffffffffffffffffffffffffffffffffffffffffffffffffffffffff84846110e9565b905092915050565b600061121282610e60565b915061121d83610e60565b9250817fffffffffffffffffffffffffffffffffffffffffffffffffffffffffffffffff04831182151516156112565761125561105a565b5b828202905092915050565b7f596f75206e65656420746f2073656e6420736f6d652065746865720000000000600082015250565b6000611297601b83610d4d565b91506112a282611261565b602082019050919050565b600060208201905081810360008301526112c68161128a565b9050919050565b7f4e6f7420656e6f75676820746f6b656e7320696e207468652072657365727665600082015250565b6000611303602083610d4d565b915061130e826112cd565b602082019050919050565b60006020820190508181036000830152611332816112f6565b9050919050565b7f496e73756666696369656e7420546f6b656e7320417661696c61626c65000000600082015250565b600061136f601d83610d4d565b915061137a82611339565b602082019050919050565b6000602082019050818103600083015261139e81611362565b9050919050565b7f496e73756666696369656e7420616c6c6f77616e636500000000000000000000600082015250565b60006113db601683610d4d565b91506113e6826113a5565b602082019050919050565b6000602082019050818103600083015261140a816113ce565b9050919050565b600061141c82610e60565b915061142783610e60565b92508282101561143a5761143961105a565b5b828203905092915050565b600061145082610e60565b915061145b83610e60565b9250827fffffffffffffffffffffffffffffffffffffffffffffffffffffffffffffffff038211156114905761148f61105a565b5b828201905092915050565b7f496e73756666696369656e742046756e64730000000000000000000000000000600082015250565b60006114d1601283610d4d565b91506114dc8261149b565b602082019050919050565b60006020820190508181036000830152611500816114c4565b9050919050565b7f596f75206e65656420746f2073656c6c206174206c6561737420736f6d65207460008201527f6f6b656e73000000000000000000000000000000000000000000000000000000602082015250565b6000611563602583610d4d565b915061156e82611507565b604082019050919050565b6000602082019050818103600083015261159281611556565b9050919050565b7f436865636b2074686520746f6b656e20616c6c6f77616e636500000000000000600082015250565b60006115cf601983610d4d565b91506115da82611599565b602082019050919050565b600060208201905081810360008301526115fe816115c2565b905091905056fea26469706673582212209bcb26264cdfab7088314f987b2df4a9514b9da8341c9f4f2fdc147fc6532e3464736f6c634300080d0033",
  "immutableReferences": {},
  "source": "// SPDX-License-Identifier: MIT\npragma solidity ^0.8.4;\n\ninterface IERC20ZURI {\n\n    function totalSupply() external view returns (uint256);\n    function balanceOf(address account) external view returns (uint256);\n    function allowance(address owner, address spender) external view returns (uint256);\n\n    function transfer(address recipient, uint256 amount) external returns (bool);\n    function approve(address spender, uint256 amount) external returns (bool);\n    function transferFrom(address sender, address recipient, uint256 amount) external returns (bool);\n\n\n    event Transfer(address indexed from, address indexed to, uint256 value);\n    event Approval(address indexed owner, address indexed spender, uint256 value);\n}\n\n\ncontract BlockBori is IERC20ZURI {\n\n    string public constant name = \"BoriToken\";\n    string public constant symbol = \"BT\";\n    uint8 public constant decimals = 18;\n    uint256 public totalSupply_;\n\n    mapping(address => uint256) balances;\n    mapping(address => mapping (address => uint256)) allowed;\n\n\n    constructor() {\n        totalSupply_ = 10**6 * (10 ** decimals);\n        balances[msg.sender] = totalSupply_;\n    }\n\n    event Received(address, uint);\n    event Buy(uint256 amount);\n    event Sell(uint256 amount);\n\n\n\n\n    function totalSupply() public override view returns (uint256) {\n        return totalSupply_;\n    }\n\n    function balanceOf(address tokenOwner) public override view returns (uint256) {\n        return balances[tokenOwner];\n    }\n\n    function transfer(address receiver, uint256 numTokens) public override returns (bool) {\n        require(numTokens <= balances[msg.sender], \"Insufficient Funds\");\n        balances[msg.sender] = balances[msg.sender] - numTokens;\n        balances[receiver] = balances[receiver] + numTokens;\n        emit Transfer(msg.sender, receiver, numTokens);\n        return true;\n    }\n\n    function approve(address delegate, uint256 numTokens) public override returns (bool) {\n        allowed[msg.sender][delegate] = numTokens;\n        emit Approval(msg.sender, delegate, numTokens);\n        return true;\n    }\n\n    function allowance(address owner, address delegate) public override view returns (uint) {\n        return allowed[owner][delegate];\n    }\n\n    function transferFrom(address owner, address buyer, uint256 numTokens) public override returns (bool) {\n        require(numTokens <= balances[owner],\"Insufficient Tokens Available\");\n        require(numTokens <= allowed[owner][msg.sender], \"Insufficient allowance\");\n\n        balances[owner] = balances[owner] - numTokens;\n        allowed[owner][msg.sender] = allowed[owner][msg.sender] - numTokens;\n        balances[buyer] = balances[buyer] + numTokens;\n        emit Transfer(owner, buyer, numTokens);\n        return true;\n    }\n\n    \n\n    function buyToken() public payable {\n        uint256 amountTobuy = 1000 * 10**decimals ;\n        uint256 dexBalance = balanceOf(tx.origin);\n        require(amountTobuy > 0, \"You need to send some ether\");\n        require(amountTobuy <= dexBalance, \"Not enough tokens in the reserve\");\n        transfer(msg.sender, amountTobuy);\n        emit Buy(amountTobuy);\n    }\n\n    function sell(uint256 amount) public {\n        require(amount > 0, \"You need to sell at least some tokens\");\n        uint256 allow = allowance(msg.sender, tx.origin);\n        require(allow >= amount, \"Check the token allowance\");\n        transferFrom(msg.sender, tx.origin, amount);\n        payable(msg.sender).transfer(amount);\n        emit Sell(amount);\n    }\n\n    receive() external payable{\n        buyToken();\n    }\n}\n",
  "sourcePath": "/Users/mac/Documents/ERC20/rinkeby_zuri/contracts/BoriERC20old.sol",
  "compiler": {
    "name": "solc",
    "version": "0.8.13+commit.abaa5c0e.Emscripten.clang"
  },
  "schemaVersion": "3.4.6",
  "updatedAt": "2022-03-17T23:59:42.607Z",
  "devdoc": {
    "kind": "dev",
    "methods": {},
    "version": 1
  },
  "userdoc": {
    "kind": "user",
    "methods": {},
    "version": 1
  }
}