{
  "contractName": "BlockBoriRetail",
  "abi": [
    {
      "inputs": [],
      "stateMutability": "nonpayable",
      "type": "constructor"
    },
    {
      "anonymous": false,
      "inputs": [
        {
          "indexed": false,
          "internalType": "uint256",
          "name": "amount",
          "type": "uint256"
        }
      ],
      "name": "Buy",
      "type": "event"
    },
    {
      "anonymous": false,
      "inputs": [
        {
          "indexed": false,
          "internalType": "uint256",
          "name": "amount",
          "type": "uint256"
        }
      ],
      "name": "Sell",
      "type": "event"
    },
    {
      "inputs": [],
      "name": "token",
      "outputs": [
        {
          "internalType": "contract IERC20ZURI",
          "name": "",
          "type": "address"
        }
      ],
      "stateMutability": "view",
      "type": "function"
    },
    {
      "inputs": [],
      "name": "buyToken",
      "outputs": [],
      "stateMutability": "payable",
      "type": "function"
    },
    {
      "inputs": [
        {
          "internalType": "uint256",
          "name": "amount",
          "type": "uint256"
        }
      ],
      "name": "sell",
      "outputs": [],
      "stateMutability": "nonpayable",
      "type": "function"
    }
  ],
  "bytecode": "0x608060405234801561001057600080fd5b5060405161001d9061007e565b604051809103906000f080158015610039573d6000803e3d6000fd5b506000806101000a81548173ffffffffffffffffffffffffffffffffffffffff021916908373ffffffffffffffffffffffffffffffffffffffff16021790555061008b565b61128e80610a5883390190565b6109be8061009a6000396000f3fe6080604052600436106100345760003560e01c8063a482171914610039578063e4849b3214610043578063fc0c546a1461006c575b600080fd5b610041610097565b005b34801561004f57600080fd5b5061006a60048036038101906100659190610544565b61029b565b005b34801561007857600080fd5b506100816104e5565b60405161008e91906105f0565b60405180910390f35b600034905060008060009054906101000a900473ffffffffffffffffffffffffffffffffffffffff1673ffffffffffffffffffffffffffffffffffffffff166370a08231306040518263ffffffff1660e01b81526004016100f8919061062c565b602060405180830381865afa158015610115573d6000803e3d6000fd5b505050506040513d601f19601f82011682018060405250810190610139919061065c565b90506000821161017e576040517f08c379a0000000000000000000000000000000000000000000000000000000008152600401610175906106e6565b60405180910390fd5b808211156101c1576040517f08c379a00000000000000000000000000000000000000000000000000000000081526004016101b890610752565b60405180910390fd5b60008054906101000a900473ffffffffffffffffffffffffffffffffffffffff1673ffffffffffffffffffffffffffffffffffffffff1663a9059cbb33846040518363ffffffff1660e01b815260040161021c929190610781565b6020604051808303816000875af115801561023b573d6000803e3d6000fd5b505050506040513d601f19601f8201168201806040525081019061025f91906107e2565b507f3e32821836f4caf5b64b2c8c6b460049a9797526960d31502f7575b8da39d5ae8260405161028f919061080f565b60405180910390a15050565b600081116102de576040517f08c379a00000000000000000000000000000000000000000000000000000000081526004016102d59061089c565b60405180910390fd5b60008060009054906101000a900473ffffffffffffffffffffffffffffffffffffffff1673ffffffffffffffffffffffffffffffffffffffff1663dd62ed3e33306040518363ffffffff1660e01b815260040161033c9291906108bc565b602060405180830381865afa158015610359573d6000803e3d6000fd5b505050506040513d601f19601f8201168201806040525081019061037d919061065c565b9050818110156103c2576040517f08c379a00000000000000000000000000000000000000000000000000000000081526004016103b990610931565b60405180910390fd5b60008054906101000a900473ffffffffffffffffffffffffffffffffffffffff1673ffffffffffffffffffffffffffffffffffffffff166323b872dd3330856040518463ffffffff1660e01b815260040161041f93929190610951565b6020604051808303816000875af115801561043e573d6000803e3d6000fd5b505050506040513d601f19601f8201168201806040525081019061046291906107e2565b503373ffffffffffffffffffffffffffffffffffffffff166108fc839081150290604051600060405180830381858888f193505050501580156104a9573d6000803e3d6000fd5b507f522881958b3c4a6fc0840ad3b7fb947b881edc28c004245a62541647422ade97826040516104d9919061080f565b60405180910390a15050565b60008054906101000a900473ffffffffffffffffffffffffffffffffffffffff1681565b600080fd5b6000819050919050565b6105218161050e565b811461052c57600080fd5b50565b60008135905061053e81610518565b92915050565b60006020828403121561055a57610559610509565b5b60006105688482850161052f565b91505092915050565b600073ffffffffffffffffffffffffffffffffffffffff82169050919050565b6000819050919050565b60006105b66105b16105ac84610571565b610591565b610571565b9050919050565b60006105c88261059b565b9050919050565b60006105da826105bd565b9050919050565b6105ea816105cf565b82525050565b600060208201905061060560008301846105e1565b92915050565b600061061682610571565b9050919050565b6106268161060b565b82525050565b6000602082019050610641600083018461061d565b92915050565b60008151905061065681610518565b92915050565b60006020828403121561067257610671610509565b5b600061068084828501610647565b91505092915050565b600082825260208201905092915050565b7f596f75206e65656420746f2073656e6420736f6d652065746865720000000000600082015250565b60006106d0601b83610689565b91506106db8261069a565b602082019050919050565b600060208201905081810360008301526106ff816106c3565b9050919050565b7f4e6f7420656e6f75676820746f6b656e7320696e207468652072657365727665600082015250565b600061073c602083610689565b915061074782610706565b602082019050919050565b6000602082019050818103600083015261076b8161072f565b9050919050565b61077b8161050e565b82525050565b6000604082019050610796600083018561061d565b6107a36020830184610772565b9392505050565b60008115159050919050565b6107bf816107aa565b81146107ca57600080fd5b50565b6000815190506107dc816107b6565b92915050565b6000602082840312156107f8576107f7610509565b5b6000610806848285016107cd565b91505092915050565b60006020820190506108246000830184610772565b92915050565b7f596f75206e65656420746f2073656c6c206174206c6561737420736f6d65207460008201527f6f6b656e73000000000000000000000000000000000000000000000000000000602082015250565b6000610886602583610689565b91506108918261082a565b604082019050919050565b600060208201905081810360008301526108b581610879565b9050919050565b60006040820190506108d1600083018561061d565b6108de602083018461061d565b9392505050565b7f436865636b2074686520746f6b656e20616c6c6f77616e636500000000000000600082015250565b600061091b601983610689565b9150610926826108e5565b602082019050919050565b6000602082019050818103600083015261094a8161090e565b9050919050565b6000606082019050610966600083018661061d565b610973602083018561061d565b6109806040830184610772565b94935050505056fea26469706673582212205f40a8f4e564b176fbf4473b8d4d705188606422c1f02626e3e11981b41f339764736f6c634300080d003360806040523480156200001157600080fd5b506012600a6200002291906200021e565b620f42406200003291906200026f565b600081905550600054600160003373ffffffffffffffffffffffffffffffffffffffff1673ffffffffffffffffffffffffffffffffffffffff16815260200190815260200160002081905550620002d0565b7f4e487b7100000000000000000000000000000000000000000000000000000000600052601160045260246000fd5b60008160011c9050919050565b6000808291508390505b60018511156200011257808604811115620000ea57620000e962000084565b5b6001851615620000fa5780820291505b80810290506200010a85620000b3565b9450620000ca565b94509492505050565b6000826200012d576001905062000200565b816200013d576000905062000200565b8160018114620001565760028114620001615762000197565b600191505062000200565b60ff84111562000176576200017562000084565b5b8360020a91508482111562000190576200018f62000084565b5b5062000200565b5060208310610133831016604e8410600b8410161715620001d15782820a905083811115620001cb57620001ca62000084565b5b62000200565b620001e08484846001620000c0565b92509050818404811115620001fa57620001f962000084565b5b81810290505b9392505050565b6000819050919050565b600060ff82169050919050565b60006200022b8262000207565b9150620002388362000211565b9250620002677fffffffffffffffffffffffffffffffffffffffffffffffffffffffffffffffff84846200011b565b905092915050565b60006200027c8262000207565b9150620002898362000207565b9250817fffffffffffffffffffffffffffffffffffffffffffffffffffffffffffffffff0483118215151615620002c557620002c462000084565b5b828202905092915050565b610fae80620002e06000396000f3fe608060405234801561001057600080fd5b506004361061009e5760003560e01c8063324536eb11610066578063324536eb1461015d57806370a082311461017b57806395d89b41146101ab578063a9059cbb146101c9578063dd62ed3e146101f95761009e565b806306fdde03146100a3578063095ea7b3146100c157806318160ddd146100f157806323b872dd1461010f578063313ce5671461013f575b600080fd5b6100ab610229565b6040516100b89190610b66565b60405180910390f35b6100db60048036038101906100d69190610c21565b610262565b6040516100e89190610c7c565b60405180910390f35b6100f9610354565b6040516101069190610ca6565b60405180910390f35b61012960048036038101906101249190610cc1565b61035d565b6040516101369190610c7c565b60405180910390f35b610147610749565b6040516101549190610d30565b60405180910390f35b61016561074e565b6040516101729190610ca6565b60405180910390f35b61019560048036038101906101909190610d4b565b610754565b6040516101a29190610ca6565b60405180910390f35b6101b361079d565b6040516101c09190610b66565b60405180910390f35b6101e360048036038101906101de9190610c21565b6107d6565b6040516101f09190610c7c565b60405180910390f35b610213600480360381019061020e9190610d78565b6109f3565b6040516102209190610ca6565b60405180910390f35b6040518060400160405280600981526020017f426f7269546f6b656e000000000000000000000000000000000000000000000081525081565b600081600260003373ffffffffffffffffffffffffffffffffffffffff1673ffffffffffffffffffffffffffffffffffffffff16815260200190815260200160002060008573ffffffffffffffffffffffffffffffffffffffff1673ffffffffffffffffffffffffffffffffffffffff168152602001908152602001600020819055508273ffffffffffffffffffffffffffffffffffffffff163373ffffffffffffffffffffffffffffffffffffffff167f8c5be1e5ebec7d5bd14f71427d1e84f3dd0314c0f7b2291e5b200ac8c7c3b925846040516103429190610ca6565b60405180910390a36001905092915050565b60008054905090565b6000600160008573ffffffffffffffffffffffffffffffffffffffff1673ffffffffffffffffffffffffffffffffffffffff168152602001908152602001600020548211156103e1576040517f08c379a00000000000000000000000000000000000000000000000000000000081526004016103d890610e04565b60405180910390fd5b600260008573ffffffffffffffffffffffffffffffffffffffff1673ffffffffffffffffffffffffffffffffffffffff16815260200190815260200160002060003373ffffffffffffffffffffffffffffffffffffffff1673ffffffffffffffffffffffffffffffffffffffff168152602001908152602001600020548211156104a0576040517f08c379a000000000000000000000000000000000000000000000000000000000815260040161049790610e70565b60405180910390fd5b6104f282600160008773ffffffffffffffffffffffffffffffffffffffff1673ffffffffffffffffffffffffffffffffffffffff16815260200190815260200160002054610a7a90919063ffffffff16565b600160008673ffffffffffffffffffffffffffffffffffffffff1673ffffffffffffffffffffffffffffffffffffffff168152602001908152602001600020819055506105c482600260008773ffffffffffffffffffffffffffffffffffffffff1673ffffffffffffffffffffffffffffffffffffffff16815260200190815260200160002060003373ffffffffffffffffffffffffffffffffffffffff1673ffffffffffffffffffffffffffffffffffffffff16815260200190815260200160002054610a7a90919063ffffffff16565b600260008673ffffffffffffffffffffffffffffffffffffffff1673ffffffffffffffffffffffffffffffffffffffff16815260200190815260200160002060003373ffffffffffffffffffffffffffffffffffffffff1673ffffffffffffffffffffffffffffffffffffffff1681526020019081526020016000208190555061069682600160008673ffffffffffffffffffffffffffffffffffffffff1673ffffffffffffffffffffffffffffffffffffffff16815260200190815260200160002054610aa190919063ffffffff16565b600160008573ffffffffffffffffffffffffffffffffffffffff1673ffffffffffffffffffffffffffffffffffffffff168152602001908152602001600020819055508273ffffffffffffffffffffffffffffffffffffffff168473ffffffffffffffffffffffffffffffffffffffff167fddf252ad1be2c89b69c2b068fc378daa952ba7f163c4a11628f55a4df523b3ef846040516107369190610ca6565b60405180910390a3600190509392505050565b601281565b60005481565b6000600160008373ffffffffffffffffffffffffffffffffffffffff1673ffffffffffffffffffffffffffffffffffffffff168152602001908152602001600020549050919050565b6040518060400160405280600281526020017f425400000000000000000000000000000000000000000000000000000000000081525081565b6000600160003373ffffffffffffffffffffffffffffffffffffffff1673ffffffffffffffffffffffffffffffffffffffff1681526020019081526020016000205482111561085a576040517f08c379a000000000000000000000000000000000000000000000000000000000815260040161085190610e04565b60405180910390fd5b6108ac82600160003373ffffffffffffffffffffffffffffffffffffffff1673ffffffffffffffffffffffffffffffffffffffff16815260200190815260200160002054610a7a90919063ffffffff16565b600160003373ffffffffffffffffffffffffffffffffffffffff1673ffffffffffffffffffffffffffffffffffffffff1681526020019081526020016000208190555061094182600160008673ffffffffffffffffffffffffffffffffffffffff1673ffffffffffffffffffffffffffffffffffffffff16815260200190815260200160002054610aa190919063ffffffff16565b600160008573ffffffffffffffffffffffffffffffffffffffff1673ffffffffffffffffffffffffffffffffffffffff168152602001908152602001600020819055508273ffffffffffffffffffffffffffffffffffffffff163373ffffffffffffffffffffffffffffffffffffffff167fddf252ad1be2c89b69c2b068fc378daa952ba7f163c4a11628f55a4df523b3ef846040516109e19190610ca6565b60405180910390a36001905092915050565b6000600260008473ffffffffffffffffffffffffffffffffffffffff1673ffffffffffffffffffffffffffffffffffffffff16815260200190815260200160002060008373ffffffffffffffffffffffffffffffffffffffff1673ffffffffffffffffffffffffffffffffffffffff16815260200190815260200160002054905092915050565b600082821115610a8d57610a8c610e90565b5b8183610a999190610eee565b905092915050565b6000808284610ab09190610f22565b905083811015610ac357610ac2610e90565b5b8091505092915050565b600081519050919050565b600082825260208201905092915050565b60005b83811015610b07578082015181840152602081019050610aec565b83811115610b16576000848401525b50505050565b6000601f19601f8301169050919050565b6000610b3882610acd565b610b428185610ad8565b9350610b52818560208601610ae9565b610b5b81610b1c565b840191505092915050565b60006020820190508181036000830152610b808184610b2d565b905092915050565b600080fd5b600073ffffffffffffffffffffffffffffffffffffffff82169050919050565b6000610bb882610b8d565b9050919050565b610bc881610bad565b8114610bd357600080fd5b50565b600081359050610be581610bbf565b92915050565b6000819050919050565b610bfe81610beb565b8114610c0957600080fd5b50565b600081359050610c1b81610bf5565b92915050565b60008060408385031215610c3857610c37610b88565b5b6000610c4685828601610bd6565b9250506020610c5785828601610c0c565b9150509250929050565b60008115159050919050565b610c7681610c61565b82525050565b6000602082019050610c916000830184610c6d565b92915050565b610ca081610beb565b82525050565b6000602082019050610cbb6000830184610c97565b92915050565b600080600060608486031215610cda57610cd9610b88565b5b6000610ce886828701610bd6565b9350506020610cf986828701610bd6565b9250506040610d0a86828701610c0c565b9150509250925092565b600060ff82169050919050565b610d2a81610d14565b82525050565b6000602082019050610d456000830184610d21565b92915050565b600060208284031215610d6157610d60610b88565b5b6000610d6f84828501610bd6565b91505092915050565b60008060408385031215610d8f57610d8e610b88565b5b6000610d9d85828601610bd6565b9250506020610dae85828601610bd6565b9150509250929050565b7f496e73756666696369656e742046756e64730000000000000000000000000000600082015250565b6000610dee601283610ad8565b9150610df982610db8565b602082019050919050565b60006020820190508181036000830152610e1d81610de1565b9050919050565b7f496e73756666696369656e7420616c6c6f77616e636500000000000000000000600082015250565b6000610e5a601683610ad8565b9150610e6582610e24565b602082019050919050565b60006020820190508181036000830152610e8981610e4d565b9050919050565b7f4e487b7100000000000000000000000000000000000000000000000000000000600052600160045260246000fd5b7f4e487b7100000000000000000000000000000000000000000000000000000000600052601160045260246000fd5b6000610ef982610beb565b9150610f0483610beb565b925082821015610f1757610f16610ebf565b5b828203905092915050565b6000610f2d82610beb565b9150610f3883610beb565b9250827fffffffffffffffffffffffffffffffffffffffffffffffffffffffffffffffff03821115610f6d57610f6c610ebf565b5b82820190509291505056fea2646970667358221220f1983a22f351c03cdfcfa257d478b171b1d587efa09bff8c52b13d60f6ec857164736f6c634300080d0033",
  "immutableReferences": {},
  "source": "// SPDX-License-Identifier: MIT\npragma solidity ^0.8.4;\n\ninterface IERC20ZURI {\n\n    function totalSupply() external view returns (uint256);\n    function balanceOf(address account) external view returns (uint256);\n    function allowance(address owner, address spender) external view returns (uint256);\n\n    function transfer(address recipient, uint256 amount) external returns (bool);\n    function approve(address spender, uint256 amount) external returns (bool);\n    function transferFrom(address sender, address recipient, uint256 amount) external returns (bool);\n\n\n    event Transfer(address indexed from, address indexed to, uint256 value);\n    event Approval(address indexed owner, address indexed spender, uint256 value);\n}\n\n\ncontract BlockBori is IERC20ZURI {\n    using SafeMath for uint256;\n\n    string public constant name = \"BoriToken\";\n    string public constant symbol = \"BT\";\n    uint8 public constant decimals = 18;\n    uint256 public totalSupply_;\n\n    mapping(address => uint256) balances;\n    mapping(address => mapping (address => uint256)) allowed;\n\n\n    constructor() {\n        totalSupply_ = 10**6 * (10 ** decimals);\n        balances[msg.sender] = totalSupply_;\n    }\n\n    event Received(address, uint);\n\n\n    function totalSupply() public override view returns (uint256) {\n        return totalSupply_;\n    }\n\n    function balanceOf(address tokenOwner) public override view returns (uint256) {\n        return balances[tokenOwner];\n    }\n\n    function transfer(address receiver, uint256 numTokens) public override returns (bool) {\n        require(numTokens <= balances[msg.sender], \"Insufficient Funds\");\n        balances[msg.sender] = balances[msg.sender].sub(numTokens);\n        balances[receiver] = balances[receiver].add(numTokens);\n        emit Transfer(msg.sender, receiver, numTokens);\n        return true;\n    }\n\n    function approve(address delegate, uint256 numTokens) public override returns (bool) {\n        allowed[msg.sender][delegate] = numTokens;\n        emit Approval(msg.sender, delegate, numTokens);\n        return true;\n    }\n\n    function allowance(address owner, address delegate) public override view returns (uint) {\n        return allowed[owner][delegate];\n    }\n\n    function transferFrom(address owner, address buyer, uint256 numTokens) public override returns (bool) {\n        require(numTokens <= balances[owner],\"Insufficient Funds\");\n        require(numTokens <= allowed[owner][msg.sender], \"Insufficient allowance\");\n\n        balances[owner] = balances[owner].sub(numTokens);\n        allowed[owner][msg.sender] = allowed[owner][msg.sender].sub(numTokens);\n        balances[buyer] = balances[buyer].add(numTokens);\n        emit Transfer(owner, buyer, numTokens);\n        return true;\n    }\n}\n\nlibrary SafeMath {\n    function sub(uint256 a, uint256 b) internal pure returns (uint256) {\n      assert(b <= a);\n      return a - b;\n    }\n\n    function add(uint256 a, uint256 b) internal pure returns (uint256) {\n      uint256 c = a + b;\n      assert(c >= a);\n      return c;\n    }\n}\n\ncontract BlockBoriRetail {\n\n    event Buy(uint256 amount);\n    event Sell(uint256 amount);\n\n\n    IERC20ZURI public token;\n\n    constructor() {\n        token = new BlockBori();\n    }\n\n    function buyToken() public payable  {\n        uint256 amountTobuy = msg.value;\n        uint256 dexBalance = token.balanceOf(address(this));\n        require(amountTobuy > 0, \"You need to send some ether\");\n        require(amountTobuy <= dexBalance, \"Not enough tokens in the reserve\");\n        token.transfer(msg.sender, amountTobuy);\n        emit Buy(amountTobuy);\n    }\n\n    function sell(uint256 amount) public {\n        require(amount > 0, \"You need to sell at least some tokens\");\n        uint256 allowance = token.allowance(msg.sender, address(this));\n        require(allowance >= amount, \"Check the token allowance\");\n        token.transferFrom(msg.sender, address(this), amount);\n        payable(msg.sender).transfer(amount);\n        emit Sell(amount);\n    }\n\n}",
  "sourcePath": "/Users/mac/Documents/ERC20/rinkeby_zuri/contracts/BlockBori.sol",
  "compiler": {
    "name": "solc",
    "version": "0.8.13+commit.abaa5c0e.Emscripten.clang"
  },
  "schemaVersion": "3.4.6",
  "updatedAt": "2022-03-17T03:11:53.288Z",
  "devdoc": {
    "kind": "dev",
    "methods": {},
    "version": 1
  },
  "userdoc": {
    "kind": "user",
    "methods": {},
    "version": 1
  }
}