{
  "contractName": "BoriERC721",
  "abi": [
    {
      "inputs": [],
      "stateMutability": "nonpayable",
      "type": "constructor"
    },
    {
      "anonymous": false,
      "inputs": [
        {
          "indexed": true,
          "internalType": "address",
          "name": "owner",
          "type": "address"
        },
        {
          "indexed": true,
          "internalType": "address",
          "name": "approved",
          "type": "address"
        },
        {
          "indexed": true,
          "internalType": "uint256",
          "name": "tokenId",
          "type": "uint256"
        }
      ],
      "name": "Approval",
      "type": "event"
    },
    {
      "anonymous": false,
      "inputs": [
        {
          "indexed": true,
          "internalType": "address",
          "name": "owner",
          "type": "address"
        },
        {
          "indexed": true,
          "internalType": "address",
          "name": "operator",
          "type": "address"
        },
        {
          "indexed": false,
          "internalType": "bool",
          "name": "approved",
          "type": "bool"
        }
      ],
      "name": "ApprovalForAll",
      "type": "event"
    },
    {
      "anonymous": false,
      "inputs": [
        {
          "indexed": true,
          "internalType": "address",
          "name": "from",
          "type": "address"
        },
        {
          "indexed": true,
          "internalType": "address",
          "name": "to",
          "type": "address"
        },
        {
          "indexed": true,
          "internalType": "uint256",
          "name": "tokenId",
          "type": "uint256"
        }
      ],
      "name": "Transfer",
      "type": "event"
    },
    {
      "inputs": [
        {
          "internalType": "address",
          "name": "to",
          "type": "address"
        },
        {
          "internalType": "uint256",
          "name": "tokenId",
          "type": "uint256"
        }
      ],
      "name": "approve",
      "outputs": [],
      "stateMutability": "nonpayable",
      "type": "function"
    },
    {
      "inputs": [
        {
          "internalType": "address",
          "name": "owner",
          "type": "address"
        }
      ],
      "name": "balanceOf",
      "outputs": [
        {
          "internalType": "uint256",
          "name": "",
          "type": "uint256"
        }
      ],
      "stateMutability": "view",
      "type": "function",
      "constant": true
    },
    {
      "inputs": [
        {
          "internalType": "uint256",
          "name": "tokenId",
          "type": "uint256"
        }
      ],
      "name": "getApproved",
      "outputs": [
        {
          "internalType": "address",
          "name": "",
          "type": "address"
        }
      ],
      "stateMutability": "view",
      "type": "function",
      "constant": true
    },
    {
      "inputs": [
        {
          "internalType": "address",
          "name": "owner",
          "type": "address"
        },
        {
          "internalType": "address",
          "name": "operator",
          "type": "address"
        }
      ],
      "name": "isApprovedForAll",
      "outputs": [
        {
          "internalType": "bool",
          "name": "",
          "type": "bool"
        }
      ],
      "stateMutability": "view",
      "type": "function",
      "constant": true
    },
    {
      "inputs": [],
      "name": "name",
      "outputs": [
        {
          "internalType": "string",
          "name": "",
          "type": "string"
        }
      ],
      "stateMutability": "view",
      "type": "function",
      "constant": true
    },
    {
      "inputs": [
        {
          "internalType": "uint256",
          "name": "tokenId",
          "type": "uint256"
        }
      ],
      "name": "ownerOf",
      "outputs": [
        {
          "internalType": "address",
          "name": "",
          "type": "address"
        }
      ],
      "stateMutability": "view",
      "type": "function",
      "constant": true
    },
    {
      "inputs": [
        {
          "internalType": "address",
          "name": "from",
          "type": "address"
        },
        {
          "internalType": "address",
          "name": "to",
          "type": "address"
        },
        {
          "internalType": "uint256",
          "name": "tokenId",
          "type": "uint256"
        }
      ],
      "name": "safeTransferFrom",
      "outputs": [],
      "stateMutability": "nonpayable",
      "type": "function"
    },
    {
      "inputs": [
        {
          "internalType": "address",
          "name": "from",
          "type": "address"
        },
        {
          "internalType": "address",
          "name": "to",
          "type": "address"
        },
        {
          "internalType": "uint256",
          "name": "tokenId",
          "type": "uint256"
        },
        {
          "internalType": "bytes",
          "name": "_data",
          "type": "bytes"
        }
      ],
      "name": "safeTransferFrom",
      "outputs": [],
      "stateMutability": "nonpayable",
      "type": "function"
    },
    {
      "inputs": [
        {
          "internalType": "address",
          "name": "operator",
          "type": "address"
        },
        {
          "internalType": "bool",
          "name": "approved",
          "type": "bool"
        }
      ],
      "name": "setApprovalForAll",
      "outputs": [],
      "stateMutability": "nonpayable",
      "type": "function"
    },
    {
      "inputs": [
        {
          "internalType": "bytes4",
          "name": "interfaceId",
          "type": "bytes4"
        }
      ],
      "name": "supportsInterface",
      "outputs": [
        {
          "internalType": "bool",
          "name": "",
          "type": "bool"
        }
      ],
      "stateMutability": "view",
      "type": "function",
      "constant": true
    },
    {
      "inputs": [],
      "name": "symbol",
      "outputs": [
        {
          "internalType": "string",
          "name": "",
          "type": "string"
        }
      ],
      "stateMutability": "view",
      "type": "function",
      "constant": true
    },
    {
      "inputs": [
        {
          "internalType": "uint256",
          "name": "tokenId",
          "type": "uint256"
        }
      ],
      "name": "tokenURI",
      "outputs": [
        {
          "internalType": "string",
          "name": "",
          "type": "string"
        }
      ],
      "stateMutability": "view",
      "type": "function",
      "constant": true
    },
    {
      "inputs": [
        {
          "internalType": "address",
          "name": "from",
          "type": "address"
        },
        {
          "internalType": "address",
          "name": "to",
          "type": "address"
        },
        {
          "internalType": "uint256",
          "name": "tokenId",
          "type": "uint256"
        }
      ],
      "name": "transferFrom",
      "outputs": [],
      "stateMutability": "nonpayable",
      "type": "function"
    },
    {
      "inputs": [
        {
          "internalType": "address",
          "name": "recipient",
          "type": "address"
        },
        {
          "internalType": "string",
          "name": "hash",
          "type": "string"
        },
        {
          "internalType": "string",
          "name": "metadata",
          "type": "string"
        }
      ],
      "name": "awardItem",
      "outputs": [
        {
          "internalType": "uint256",
          "name": "",
          "type": "uint256"
        }
      ],
      "stateMutability": "nonpayable",
      "type": "function"
    }
  ],
  "bytecode": "0x60806040523480156200001157600080fd5b506040518060400160405280600a81526020017f426f7269455243373231000000000000000000000000000000000000000000008152506040518060400160405280600481526020017f424e465400000000000000000000000000000000000000000000000000000000815250816000908051906020019062000096929190620000b8565b508060019080519060200190620000af929190620000b8565b505050620001cc565b828054620000c69062000197565b90600052602060002090601f016020900481019282620000ea576000855562000136565b82601f106200010557805160ff191683800117855562000136565b8280016001018555821562000136579182015b828111156200013557825182559160200191906001019062000118565b5b50905062000145919062000149565b5090565b5b80821115620001645760008160009055506001016200014a565b5090565b7f4e487b7100000000000000000000000000000000000000000000000000000000600052602260045260246000fd5b60006002820490506001821680620001b057607f821691505b602082108103620001c657620001c562000168565b5b50919050565b61297d80620001dc6000396000f3fe608060405234801561001057600080fd5b50600436106100ea5760003560e01c806370a082311161008c578063a22cb46511610066578063a22cb4651461026f578063b88d4fde1461028b578063c87b56dd146102a7578063e985e9c5146102d7576100ea565b806370a08231146101f15780638bfaf1011461022157806395d89b4114610251576100ea565b8063095ea7b3116100c8578063095ea7b31461016d57806323b872dd1461018957806342842e0e146101a55780636352211e146101c1576100ea565b806301ffc9a7146100ef57806306fdde031461011f578063081812fc1461013d575b600080fd5b61010960048036038101906101049190611753565b610307565b604051610116919061179b565b60405180910390f35b6101276103e9565b604051610134919061184f565b60405180910390f35b610157600480360381019061015291906118a7565b61047b565b6040516101649190611915565b60405180910390f35b6101876004803603810190610182919061195c565b610500565b005b6101a3600480360381019061019e919061199c565b610617565b005b6101bf60048036038101906101ba919061199c565b610677565b005b6101db60048036038101906101d691906118a7565b610697565b6040516101e89190611915565b60405180910390f35b61020b600480360381019061020691906119ef565b610748565b6040516102189190611a2b565b60405180910390f35b61023b60048036038101906102369190611b7b565b6107ff565b6040516102489190611a2b565b60405180910390f35b6102596108d7565b604051610266919061184f565b60405180910390f35b61028960048036038101906102849190611c32565b610969565b005b6102a560048036038101906102a09190611d13565b61097f565b005b6102c160048036038101906102bc91906118a7565b6109e1565b6040516102ce919061184f565b60405180910390f35b6102f160048036038101906102ec9190611d96565b610a88565b6040516102fe919061179b565b60405180910390f35b60007f80ac58cd000000000000000000000000000000000000000000000000000000007bffffffffffffffffffffffffffffffffffffffffffffffffffffffff1916827bffffffffffffffffffffffffffffffffffffffffffffffffffffffff191614806103d257507f5b5e139f000000000000000000000000000000000000000000000000000000007bffffffffffffffffffffffffffffffffffffffffffffffffffffffff1916827bffffffffffffffffffffffffffffffffffffffffffffffffffffffff1916145b806103e257506103e182610b1c565b5b9050919050565b6060600080546103f890611e05565b80601f016020809104026020016040519081016040528092919081815260200182805461042490611e05565b80156104715780601f1061044657610100808354040283529160200191610471565b820191906000526020600020905b81548152906001019060200180831161045457829003601f168201915b5050505050905090565b600061048682610b86565b6104c5576040517f08c379a00000000000000000000000000000000000000000000000000000000081526004016104bc90611ea8565b60405180910390fd5b6004600083815260200190815260200160002060009054906101000a900473ffffffffffffffffffffffffffffffffffffffff169050919050565b600061050b82610697565b90508073ffffffffffffffffffffffffffffffffffffffff168373ffffffffffffffffffffffffffffffffffffffff160361057b576040517f08c379a000000000000000000000000000000000000000000000000000000000815260040161057290611f3a565b60405180910390fd5b8073ffffffffffffffffffffffffffffffffffffffff1661059a610bf2565b73ffffffffffffffffffffffffffffffffffffffff1614806105c957506105c8816105c3610bf2565b610a88565b5b610608576040517f08c379a00000000000000000000000000000000000000000000000000000000081526004016105ff90611fcc565b60405180910390fd5b6106128383610bfa565b505050565b610628610622610bf2565b82610cb3565b610667576040517f08c379a000000000000000000000000000000000000000000000000000000000815260040161065e9061205e565b60405180910390fd5b610672838383610d91565b505050565b6106928383836040518060200160405280600081525061097f565b505050565b6000806002600084815260200190815260200160002060009054906101000a900473ffffffffffffffffffffffffffffffffffffffff169050600073ffffffffffffffffffffffffffffffffffffffff168173ffffffffffffffffffffffffffffffffffffffff160361073f576040517f08c379a0000000000000000000000000000000000000000000000000000000008152600401610736906120f0565b60405180910390fd5b80915050919050565b60008073ffffffffffffffffffffffffffffffffffffffff168273ffffffffffffffffffffffffffffffffffffffff16036107b8576040517f08c379a00000000000000000000000000000000000000000000000000000000081526004016107af90612182565b60405180910390fd5b600360008373ffffffffffffffffffffffffffffffffffffffff1673ffffffffffffffffffffffffffffffffffffffff168152602001908152602001600020549050919050565b6000600160078460405161081391906121de565b908152602001604051809103902060009054906101000a900460ff1660ff1603610872576040517f08c379a000000000000000000000000000000000000000000000000000000000815260040161086990612241565b60405180910390fd5b600160078460405161088491906121de565b908152602001604051809103902060006101000a81548160ff021916908360ff1602179055506108b46006610ff7565b60006108c0600661100d565b90506108cc858261101b565b809150509392505050565b6060600180546108e690611e05565b80601f016020809104026020016040519081016040528092919081815260200182805461091290611e05565b801561095f5780601f106109345761010080835404028352916020019161095f565b820191906000526020600020905b81548152906001019060200180831161094257829003601f168201915b5050505050905090565b61097b610974610bf2565b83836111f4565b5050565b61099061098a610bf2565b83610cb3565b6109cf576040517f08c379a00000000000000000000000000000000000000000000000000000000081526004016109c69061205e565b60405180910390fd5b6109db84848484611360565b50505050565b60606109ec82610b86565b610a2b576040517f08c379a0000000000000000000000000000000000000000000000000000000008152600401610a22906122d3565b60405180910390fd5b6000610a356113bc565b90506000815111610a555760405180602001604052806000815250610a80565b80610a5f846113d3565b604051602001610a709291906122f3565b6040516020818303038152906040525b915050919050565b6000600560008473ffffffffffffffffffffffffffffffffffffffff1673ffffffffffffffffffffffffffffffffffffffff16815260200190815260200160002060008373ffffffffffffffffffffffffffffffffffffffff1673ffffffffffffffffffffffffffffffffffffffff16815260200190815260200160002060009054906101000a900460ff16905092915050565b60007f01ffc9a7000000000000000000000000000000000000000000000000000000007bffffffffffffffffffffffffffffffffffffffffffffffffffffffff1916827bffffffffffffffffffffffffffffffffffffffffffffffffffffffff1916149050919050565b60008073ffffffffffffffffffffffffffffffffffffffff166002600084815260200190815260200160002060009054906101000a900473ffffffffffffffffffffffffffffffffffffffff1673ffffffffffffffffffffffffffffffffffffffff1614159050919050565b600033905090565b816004600083815260200190815260200160002060006101000a81548173ffffffffffffffffffffffffffffffffffffffff021916908373ffffffffffffffffffffffffffffffffffffffff160217905550808273ffffffffffffffffffffffffffffffffffffffff16610c6d83610697565b73ffffffffffffffffffffffffffffffffffffffff167f8c5be1e5ebec7d5bd14f71427d1e84f3dd0314c0f7b2291e5b200ac8c7c3b92560405160405180910390a45050565b6000610cbe82610b86565b610cfd576040517f08c379a0000000000000000000000000000000000000000000000000000000008152600401610cf490612389565b60405180910390fd5b6000610d0883610697565b90508073ffffffffffffffffffffffffffffffffffffffff168473ffffffffffffffffffffffffffffffffffffffff161480610d7757508373ffffffffffffffffffffffffffffffffffffffff16610d5f8461047b565b73ffffffffffffffffffffffffffffffffffffffff16145b80610d885750610d878185610a88565b5b91505092915050565b8273ffffffffffffffffffffffffffffffffffffffff16610db182610697565b73ffffffffffffffffffffffffffffffffffffffff1614610e07576040517f08c379a0000000000000000000000000000000000000000000000000000000008152600401610dfe9061241b565b60405180910390fd5b600073ffffffffffffffffffffffffffffffffffffffff168273ffffffffffffffffffffffffffffffffffffffff1603610e76576040517f08c379a0000000000000000000000000000000000000000000000000000000008152600401610e6d906124ad565b60405180910390fd5b610e81838383611533565b610e8c600082610bfa565b6001600360008573ffffffffffffffffffffffffffffffffffffffff1673ffffffffffffffffffffffffffffffffffffffff1681526020019081526020016000206000828254610edc91906124fc565b925050819055506001600360008473ffffffffffffffffffffffffffffffffffffffff1673ffffffffffffffffffffffffffffffffffffffff1681526020019081526020016000206000828254610f339190612530565b92505081905550816002600083815260200190815260200160002060006101000a81548173ffffffffffffffffffffffffffffffffffffffff021916908373ffffffffffffffffffffffffffffffffffffffff160217905550808273ffffffffffffffffffffffffffffffffffffffff168473ffffffffffffffffffffffffffffffffffffffff167fddf252ad1be2c89b69c2b068fc378daa952ba7f163c4a11628f55a4df523b3ef60405160405180910390a4610ff2838383611538565b505050565b6001816000016000828254019250508190555050565b600081600001549050919050565b600073ffffffffffffffffffffffffffffffffffffffff168273ffffffffffffffffffffffffffffffffffffffff160361108a576040517f08c379a0000000000000000000000000000000000000000000000000000000008152600401611081906125d2565b60405180910390fd5b61109381610b86565b156110d3576040517f08c379a00000000000000000000000000000000000000000000000000000000081526004016110ca9061263e565b60405180910390fd5b6110df60008383611533565b6001600360008473ffffffffffffffffffffffffffffffffffffffff1673ffffffffffffffffffffffffffffffffffffffff168152602001908152602001600020600082825461112f9190612530565b92505081905550816002600083815260200190815260200160002060006101000a81548173ffffffffffffffffffffffffffffffffffffffff021916908373ffffffffffffffffffffffffffffffffffffffff160217905550808273ffffffffffffffffffffffffffffffffffffffff16600073ffffffffffffffffffffffffffffffffffffffff167fddf252ad1be2c89b69c2b068fc378daa952ba7f163c4a11628f55a4df523b3ef60405160405180910390a46111f060008383611538565b5050565b8173ffffffffffffffffffffffffffffffffffffffff168373ffffffffffffffffffffffffffffffffffffffff1603611262576040517f08c379a0000000000000000000000000000000000000000000000000000000008152600401611259906126aa565b60405180910390fd5b80600560008573ffffffffffffffffffffffffffffffffffffffff1673ffffffffffffffffffffffffffffffffffffffff16815260200190815260200160002060008473ffffffffffffffffffffffffffffffffffffffff1673ffffffffffffffffffffffffffffffffffffffff16815260200190815260200160002060006101000a81548160ff0219169083151502179055508173ffffffffffffffffffffffffffffffffffffffff168373ffffffffffffffffffffffffffffffffffffffff167f17307eab39ab6107e8899845ad3d59bd9653f200f220920489ca2b5937696c3183604051611353919061179b565b60405180910390a3505050565b61136b848484610d91565b6113778484848461153d565b6113b6576040517f08c379a00000000000000000000000000000000000000000000000000000000081526004016113ad9061273c565b60405180910390fd5b50505050565b606060405180602001604052806000815250905090565b60606000820361141a576040518060400160405280600181526020017f3000000000000000000000000000000000000000000000000000000000000000815250905061152e565b600082905060005b6000821461144c5780806114359061275c565b915050600a8261144591906127d3565b9150611422565b60008167ffffffffffffffff81111561146857611467611a50565b5b6040519080825280601f01601f19166020018201604052801561149a5781602001600182028036833780820191505090505b5090505b60008514611527576001826114b391906124fc565b9150600a856114c29190612804565b60306114ce9190612530565b60f81b8183815181106114e4576114e3612835565b5b60200101907effffffffffffffffffffffffffffffffffffffffffffffffffffffffffffff1916908160001a905350600a8561152091906127d3565b945061149e565b8093505050505b919050565b505050565b505050565b600061155e8473ffffffffffffffffffffffffffffffffffffffff166116c4565b156116b7578373ffffffffffffffffffffffffffffffffffffffff1663150b7a02611587610bf2565b8786866040518563ffffffff1660e01b81526004016115a994939291906128b9565b6020604051808303816000875af19250505080156115e557506040513d601f19601f820116820180604052508101906115e2919061291a565b60015b611667573d8060008114611615576040519150601f19603f3d011682016040523d82523d6000602084013e61161a565b606091505b50600081510361165f576040517f08c379a00000000000000000000000000000000000000000000000000000000081526004016116569061273c565b60405180910390fd5b805181602001fd5b63150b7a0260e01b7bffffffffffffffffffffffffffffffffffffffffffffffffffffffff1916817bffffffffffffffffffffffffffffffffffffffffffffffffffffffff1916149150506116bc565b600190505b949350505050565b6000808273ffffffffffffffffffffffffffffffffffffffff163b119050919050565b6000604051905090565b600080fd5b600080fd5b60007fffffffff0000000000000000000000000000000000000000000000000000000082169050919050565b611730816116fb565b811461173b57600080fd5b50565b60008135905061174d81611727565b92915050565b600060208284031215611769576117686116f1565b5b60006117778482850161173e565b91505092915050565b60008115159050919050565b61179581611780565b82525050565b60006020820190506117b0600083018461178c565b92915050565b600081519050919050565b600082825260208201905092915050565b60005b838110156117f05780820151818401526020810190506117d5565b838111156117ff576000848401525b50505050565b6000601f19601f8301169050919050565b6000611821826117b6565b61182b81856117c1565b935061183b8185602086016117d2565b61184481611805565b840191505092915050565b600060208201905081810360008301526118698184611816565b905092915050565b6000819050919050565b61188481611871565b811461188f57600080fd5b50565b6000813590506118a18161187b565b92915050565b6000602082840312156118bd576118bc6116f1565b5b60006118cb84828501611892565b91505092915050565b600073ffffffffffffffffffffffffffffffffffffffff82169050919050565b60006118ff826118d4565b9050919050565b61190f816118f4565b82525050565b600060208201905061192a6000830184611906565b92915050565b611939816118f4565b811461194457600080fd5b50565b60008135905061195681611930565b92915050565b60008060408385031215611973576119726116f1565b5b600061198185828601611947565b925050602061199285828601611892565b9150509250929050565b6000806000606084860312156119b5576119b46116f1565b5b60006119c386828701611947565b93505060206119d486828701611947565b92505060406119e586828701611892565b9150509250925092565b600060208284031215611a0557611a046116f1565b5b6000611a1384828501611947565b91505092915050565b611a2581611871565b82525050565b6000602082019050611a406000830184611a1c565b92915050565b600080fd5b600080fd5b7f4e487b7100000000000000000000000000000000000000000000000000000000600052604160045260246000fd5b611a8882611805565b810181811067ffffffffffffffff82111715611aa757611aa6611a50565b5b80604052505050565b6000611aba6116e7565b9050611ac68282611a7f565b919050565b600067ffffffffffffffff821115611ae657611ae5611a50565b5b611aef82611805565b9050602081019050919050565b82818337600083830152505050565b6000611b1e611b1984611acb565b611ab0565b905082815260208101848484011115611b3a57611b39611a4b565b5b611b45848285611afc565b509392505050565b600082601f830112611b6257611b61611a46565b5b8135611b72848260208601611b0b565b91505092915050565b600080600060608486031215611b9457611b936116f1565b5b6000611ba286828701611947565b935050602084013567ffffffffffffffff811115611bc357611bc26116f6565b5b611bcf86828701611b4d565b925050604084013567ffffffffffffffff811115611bf057611bef6116f6565b5b611bfc86828701611b4d565b9150509250925092565b611c0f81611780565b8114611c1a57600080fd5b50565b600081359050611c2c81611c06565b92915050565b60008060408385031215611c4957611c486116f1565b5b6000611c5785828601611947565b9250506020611c6885828601611c1d565b9150509250929050565b600067ffffffffffffffff821115611c8d57611c8c611a50565b5b611c9682611805565b9050602081019050919050565b6000611cb6611cb184611c72565b611ab0565b905082815260208101848484011115611cd257611cd1611a4b565b5b611cdd848285611afc565b509392505050565b600082601f830112611cfa57611cf9611a46565b5b8135611d0a848260208601611ca3565b91505092915050565b60008060008060808587031215611d2d57611d2c6116f1565b5b6000611d3b87828801611947565b9450506020611d4c87828801611947565b9350506040611d5d87828801611892565b925050606085013567ffffffffffffffff811115611d7e57611d7d6116f6565b5b611d8a87828801611ce5565b91505092959194509250565b60008060408385031215611dad57611dac6116f1565b5b6000611dbb85828601611947565b9250506020611dcc85828601611947565b9150509250929050565b7f4e487b7100000000000000000000000000000000000000000000000000000000600052602260045260246000fd5b60006002820490506001821680611e1d57607f821691505b602082108103611e3057611e2f611dd6565b5b50919050565b7f4552433732313a20617070726f76656420717565727920666f72206e6f6e657860008201527f697374656e7420746f6b656e0000000000000000000000000000000000000000602082015250565b6000611e92602c836117c1565b9150611e9d82611e36565b604082019050919050565b60006020820190508181036000830152611ec181611e85565b9050919050565b7f4552433732313a20617070726f76616c20746f2063757272656e74206f776e6560008201527f7200000000000000000000000000000000000000000000000000000000000000602082015250565b6000611f246021836117c1565b9150611f2f82611ec8565b604082019050919050565b60006020820190508181036000830152611f5381611f17565b9050919050565b7f4552433732313a20617070726f76652063616c6c6572206973206e6f74206f7760008201527f6e6572206e6f7220617070726f76656420666f7220616c6c0000000000000000602082015250565b6000611fb66038836117c1565b9150611fc182611f5a565b604082019050919050565b60006020820190508181036000830152611fe581611fa9565b9050919050565b7f4552433732313a207472616e736665722063616c6c6572206973206e6f74206f60008201527f776e6572206e6f7220617070726f766564000000000000000000000000000000602082015250565b60006120486031836117c1565b915061205382611fec565b604082019050919050565b600060208201905081810360008301526120778161203b565b9050919050565b7f4552433732313a206f776e657220717565727920666f72206e6f6e657869737460008201527f656e7420746f6b656e0000000000000000000000000000000000000000000000602082015250565b60006120da6029836117c1565b91506120e58261207e565b604082019050919050565b60006020820190508181036000830152612109816120cd565b9050919050565b7f4552433732313a2062616c616e636520717565727920666f7220746865207a6560008201527f726f206164647265737300000000000000000000000000000000000000000000602082015250565b600061216c602a836117c1565b915061217782612110565b604082019050919050565b6000602082019050818103600083015261219b8161215f565b9050919050565b600081905092915050565b60006121b8826117b6565b6121c281856121a2565b93506121d28185602086016117d2565b80840191505092915050565b60006121ea82846121ad565b915081905092915050565b7f2000000000000000000000000000000000000000000000000000000000000000600082015250565b600061222b6001836117c1565b9150612236826121f5565b602082019050919050565b6000602082019050818103600083015261225a8161221e565b9050919050565b7f4552433732314d657461646174613a2055524920717565727920666f72206e6f60008201527f6e6578697374656e7420746f6b656e0000000000000000000000000000000000602082015250565b60006122bd602f836117c1565b91506122c882612261565b604082019050919050565b600060208201905081810360008301526122ec816122b0565b9050919050565b60006122ff82856121ad565b915061230b82846121ad565b91508190509392505050565b7f4552433732313a206f70657261746f7220717565727920666f72206e6f6e657860008201527f697374656e7420746f6b656e0000000000000000000000000000000000000000602082015250565b6000612373602c836117c1565b915061237e82612317565b604082019050919050565b600060208201905081810360008301526123a281612366565b9050919050565b7f4552433732313a207472616e736665722066726f6d20696e636f72726563742060008201527f6f776e6572000000000000000000000000000000000000000000000000000000602082015250565b60006124056025836117c1565b9150612410826123a9565b604082019050919050565b60006020820190508181036000830152612434816123f8565b9050919050565b7f4552433732313a207472616e7366657220746f20746865207a65726f2061646460008201527f7265737300000000000000000000000000000000000000000000000000000000602082015250565b60006124976024836117c1565b91506124a28261243b565b604082019050919050565b600060208201905081810360008301526124c68161248a565b9050919050565b7f4e487b7100000000000000000000000000000000000000000000000000000000600052601160045260246000fd5b600061250782611871565b915061251283611871565b925082821015612525576125246124cd565b5b828203905092915050565b600061253b82611871565b915061254683611871565b9250827fffffffffffffffffffffffffffffffffffffffffffffffffffffffffffffffff0382111561257b5761257a6124cd565b5b828201905092915050565b7f4552433732313a206d696e7420746f20746865207a65726f2061646472657373600082015250565b60006125bc6020836117c1565b91506125c782612586565b602082019050919050565b600060208201905081810360008301526125eb816125af565b9050919050565b7f4552433732313a20746f6b656e20616c7265616479206d696e74656400000000600082015250565b6000612628601c836117c1565b9150612633826125f2565b602082019050919050565b600060208201905081810360008301526126578161261b565b9050919050565b7f4552433732313a20617070726f766520746f2063616c6c657200000000000000600082015250565b60006126946019836117c1565b915061269f8261265e565b602082019050919050565b600060208201905081810360008301526126c381612687565b9050919050565b7f4552433732313a207472616e7366657220746f206e6f6e20455243373231526560008201527f63656976657220696d706c656d656e7465720000000000000000000000000000602082015250565b60006127266032836117c1565b9150612731826126ca565b604082019050919050565b6000602082019050818103600083015261275581612719565b9050919050565b600061276782611871565b91507fffffffffffffffffffffffffffffffffffffffffffffffffffffffffffffffff8203612799576127986124cd565b5b600182019050919050565b7f4e487b7100000000000000000000000000000000000000000000000000000000600052601260045260246000fd5b60006127de82611871565b91506127e983611871565b9250826127f9576127f86127a4565b5b828204905092915050565b600061280f82611871565b915061281a83611871565b92508261282a576128296127a4565b5b828206905092915050565b7f4e487b7100000000000000000000000000000000000000000000000000000000600052603260045260246000fd5b600081519050919050565b600082825260208201905092915050565b600061288b82612864565b612895818561286f565b93506128a58185602086016117d2565b6128ae81611805565b840191505092915050565b60006080820190506128ce6000830187611906565b6128db6020830186611906565b6128e86040830185611a1c565b81810360608301526128fa8184612880565b905095945050505050565b60008151905061291481611727565b92915050565b6000602082840312156129305761292f6116f1565b5b600061293e84828501612905565b9150509291505056fea26469706673582212200a5f2987c70f2371c1338ea31524a30cfe268d85d37d03b930ee0affade4ae7f64736f6c634300080d0033",
  "immutableReferences": {},
  "source": "// SPDX-License-Identifier: MIT\npragma solidity ^0.8.4;\n\nimport \"@openzeppelin/contracts/token/ERC721/ERC721.sol\";\nimport \"@openzeppelin/contracts/utils/Counters.sol\";\n\ncontract BoriERC721 is ERC721 {\n    using Counters for Counters.Counter;\n    Counters.Counter private _tokenIds;\n    mapping(string => uint8) hashes;\n    constructor() public ERC721(\"BoriERC721\", \"BNFT\") {\n\n    }\n    function awardItem(address recipient, string memory hash, string memory metadata)\n    public\n    returns (uint256)\n    {\n        require(hashes[hash] != 1, \" \");\n        hashes[hash] = 1;\n        _tokenIds.increment();\n        uint256 newItemId = _tokenIds.current();\n        _mint(recipient, newItemId);\n        // _setTokenURI(newItemId, metadata);\n        return newItemId;\n    }\n}",
  "sourcePath": "/Users/mac/Documents/ERC20/rinkeby_zuri/contracts/BoriERC721.sol",
  "compiler": {
    "name": "solc",
    "version": "0.8.13+commit.abaa5c0e.Emscripten.clang"
  },
  "schemaVersion": "3.4.6",
  "updatedAt": "2022-03-17T02:00:04.079Z",
  "networkType": "ethereum",
  "devdoc": {
    "kind": "dev",
    "methods": {
      "approve(address,uint256)": {
        "details": "See {IERC721-approve}."
      },
      "balanceOf(address)": {
        "details": "See {IERC721-balanceOf}."
      },
      "getApproved(uint256)": {
        "details": "See {IERC721-getApproved}."
      },
      "isApprovedForAll(address,address)": {
        "details": "See {IERC721-isApprovedForAll}."
      },
      "name()": {
        "details": "See {IERC721Metadata-name}."
      },
      "ownerOf(uint256)": {
        "details": "See {IERC721-ownerOf}."
      },
      "safeTransferFrom(address,address,uint256)": {
        "details": "See {IERC721-safeTransferFrom}."
      },
      "safeTransferFrom(address,address,uint256,bytes)": {
        "details": "See {IERC721-safeTransferFrom}."
      },
      "setApprovalForAll(address,bool)": {
        "details": "See {IERC721-setApprovalForAll}."
      },
      "supportsInterface(bytes4)": {
        "details": "See {IERC165-supportsInterface}."
      },
      "symbol()": {
        "details": "See {IERC721Metadata-symbol}."
      },
      "tokenURI(uint256)": {
        "details": "See {IERC721Metadata-tokenURI}."
      },
      "transferFrom(address,address,uint256)": {
        "details": "See {IERC721-transferFrom}."
      }
    },
    "version": 1
  },
  "userdoc": {
    "kind": "user",
    "methods": {},
    "version": 1
  }
}